S02B00004F6E652054696D65722D436F756E7465722031364269742055646F76796368656E6B6F2E7372656354
S11300000C9440000C9452000C9452000C94520036
S11300100C9452000C9452000C9452000C94520014
S11300200C9452000C9452000C9452000C94520004
S11300300C9452000C9452000C9452000C945200F4
S11300400C9452000C9452000C9452000C945200E4
S11300500C9452000C9452000C9452000C945200D4
S11300600C9452000C9452000C9452000C945200C4
S11300700C9452000C9452000C9452000C945200B4
S113008011241FBECFEFD4E0DEBFCDBF21E0A0E03E
S1130090B1E001C01D92A030B207E1F70E94540004
S11100A00C9455000C940000FFCFF894FFCF91
S9030000FC
